:020000040800F2
:100000005007002089010008DB11000829110008B1
:10001000D91100088F020008D51400080000000064
:100020000000000000000000000000007D14000837
:10003000D302000800000000DD1100087F14000852
:10004000A3010008A3010008A3010008A301000800
:10005000A3010008A3010008A3010008A3010008F0
:10006000A3010008A3010008A3010008A3010008E0
:10007000910200089D020008A3010008A3010008E6
:10008000A3010008A3010008A3010008A3010008C0
:10009000A3010008A3010008A3010008A3010008B0
:1000A000A3010008A3010008A3010008A3010008A0
:1000B000A3010008A3010008A3010008A301000890
:1000C000A3010008A3010008A3010008A301000880
:1000D000A3010008A3010008A3010008A301000870
:1000E000A3010008A3010008A301000800F002F822
:1000F00000F03AF80AA090E8000C82448344AAF188
:100100000107DA4501D100F02FF8AFF2090EBAE885
:100110000F0013F0010F18BFFB1A43F0010318473B
:100120002C1400004C140000103A24BF78C878C189
:10013000FAD8520724BF30C830C144BF04680C60ED
:10014000704700000023002400250026103A28BF35
:1001500078C1FBD8520728BF30C148BF0B60704739
:100160001FB51FBD10B510BD00F058F81146FFF7C0
:10017000F7FF01F0C1F900F076F803B4FFF7F2FFE2
:1001800003BC00F07DF8000009488047094800479B
:10019000FEE7FEE7FEE7FEE7FEE7FEE7FEE7FEE737
:1001A000FEE7FEE704480549054A064B7047000094
:1001B000D3140008ED000008500100205007002073
:1001C00050030020500300204FF0000200B51346FA
:1001D00094469646203922BFA0E80C50A0E80C5067
:1001E000B1F12001BFF4F7AF090728BFA0E80C5018
:1001F00048BF0CC05DF804EB890028BF40F8042B11
:1002000008BF704748BF20F8022B11F0804F18BF7D
:1002100000F8012B7047704770477047754600F033
:100220002BF8AE4605006946534620F00700854688
:1002300018B020B5FFF7B6FFBDE820404FF000062C
:100240004FF000074FF000084FF0000B21F00701BE
:10025000AC46ACE8C009ACE8C009ACE8C009ACE801
:10026000C0098D46704710B50446AFF300802046A4
:10027000BDE81040FFF781BF00487047F000002044
:1002800001491820ABBEFEE7260002007047FEE7DA
:10029000014800F021B8000068000020014800F08B
:1002A0001BB80000AC00002030B590F8405001248D
:1002B000AC40C56B6C60046863604368102B0368D6
:1002C00003D099600068C26030BD9A600068C16068
:1002D00030BD704772B6FEE72DE9F05FC16B0C6868
:1002E00001680B68D0F840C0042202FA0CF2494DB4
:1002F000DFF824A1494E4A4FDFF828B1DFF828E1A2
:1003000022422CD05A072AD50A68920603D40A68DA
:1003100022F004020A600168A94201D1042219E016
:10032000514501D1402215E0B14202D14FF4806223
:1003300010E0B94202D14FF480420BE0594502D19E
:100340004FF4802206E0714502D14FF4800201E0B3
:100350004FF080622F4908394A60C16A3BE04FF094
:10036000020808FA0CF818EA040F4FF000094FF0E1
:10037000010235D05FEA837832D50B689B0605D43D
:100380000B6823F00A030B6080F821200168A94262
:1003900001D1022219E0514501D1202215E0B142DC
:1003A00002D14FF4007210E0B94202D14FF4005272
:1003B0000BE0594502D14FF4003206E0714502D1FD
:1003C0004FF4001201E04FF00072124908394A6000
:1003D00080F82090816A00291AD0BDE8F05F0847B4
:1003E000082505FA0CF5254212D01B0710D50B681D
:1003F00023F00E030B6090F84010C36B02FA01F17A
:100400005960826380F8212080F82090016BE2E738
:10041000BDE8F09F080002401C000240300002408E
:1004200044000240580002406C00024030B528B33E
:1004300008C8134914221944B1FBF2F18900C163C1
:1004400010498163022141771A6843F6F0718A43AB
:10045000D0E900142143D0E902452C43214304692B
:1004600021434469214384692143114319600021D8
:100470004163012242770177084630BD012030BD3B
:10048000F8FFFDBF0000024070B5044690F8200060
:10049000002501280CD0012084F8200094F8216068
:1004A0000020012E06D084F820000225284670BDC9
:1004B000022070BD022684F82160A06320680668CF
:1004C00026F0010606602046FFF7EEFEE06A0028EF
:1004D0002068016802D041F00E0106E021F004011D
:1004E00001602068016841F00A010160206801682C
:1004F00041F001010160D9E72DE9F84FDFF8B8912B
:100500000024A9F1040B23460F2709F1040AABF1DB
:10051000040EC9E00125A5402A40AA427DD1674EBC
:10052000D1F804C0ACEB0608B44532D014DCBCF101
:10053000030F3AD009DCBCF1000F2AD0BCF1010F47
:100540001CD0BCF1020F31D11DE0BCF1110F17D04E
:10055000BCF1120F2AD119E0B8F5881F19D006DCBA
:10056000B8F5803F15D0B8F5801F1FD111E0B8F560
:10057000001F0ED0B8F5041F18D10AE0CB6815E0B3
:10058000CB681B1D12E0CB6808330FE0CB680C333F
:100590000CE08B682BB1012B4FF0080303D04561B1
:1005A00004E0042302E0056100E00023FF2A01D8F3
:1005B000064601E000F104064FEA840501D9A5F1E1
:1005C0002005D6F8008007FA05FC28EA0C0803FA93
:1005D00005F548EA0508C6F800804D68ED0062D5CB
:1005E000374DAE6946F00106AE61AD6924F00306F1
:1005F00005F001050095334D06EB050CDCF80850BD
:10060000A607360F07FA06F825EA0805DFF8B880CE
:10061000404503D14FF0000817E044E0DFF8AC801C
:10062000404502D14FF001080FE0DFF8A4804045BB
:1006300002D14FF0020808E0DFF89880404502D16F
:100640004FF0030801E04FF0040808FA06F848EA02
:100650000508CCF808804D68D9F80060ED024D46D9
:1006600001D5164300E096432E604D68DAF800602D
:10067000AD02554601D5164300E096432E604D6805
:10068000DBF80060AD035D4601D5164300E09643FC
:100690002E604D68DEF80060ED03754601D5164307
:1006A00000E096432E60641C0D682A46E5407FF406
:1006B00031AFBDE8F88F00000804014000001110C0
:1006C000001002400000014000080140000C014001
:1006D000001001400014014001488068704700008C
:1006E0000000002002488168027811448160704750
:1006F00000000020074810B5016841F010010160BA
:10070000032000F075F80F2000F006F800F024F840
:10071000002010BD0020024070B50D4D04464FF47E
:100720007A712878B1FBF0F00A490968B1FBF0F062
:1007300000F0E6FC48B9102C07D200222146501EDA
:1007400000F036F800206C6070BD012070BD000024
:10075000000000200C0000200C4808B5816941F021
:1007600001018161816901F001010091C16941F0DC
:100770008051C161C06900F0805000900448416818
:1007800021F0E06141F00071416008BD00100240BD
:1007900000000140002809DB00F01F020121914008
:1007A0004009800000F1E020C0F80011704700000F
:1007B000F0B40E4B1B680C46C3F30223C3F10705CC
:1007C000042D00D90425191D072901D2002300E0BA
:1007D000DB1E012606FA05F1491E214099409E4084
:1007E000761E16403143F0BC00F075BE0CED00E003
:1007F000064900F0070208684FF6FF03184040EA78
:100800000220034A10430860704700000CED00E02E
:100810000000FA052DE9F0470F46050061D0434E70
:10082000306800F00700B84209D2306820F00700B5
:1008300038433060306800F00700B84251D1286872
:100840003B4C810712D5400703D5606840F4E06057
:1008500060602878000703D5606840F460506060ED
:100860006068A96820F0F000084360602878C0073D
:1008700028D06868012810D02168022810D0890784
:1008800000292EDA616821F0030101436160FFF75E
:1008900023FF804641F288390DE021688903EFE7A4
:1008A0008901EDE7FFF718FFA0EB0801494502D9E0
:1008B0000320BDE8F0876068696800F00C00B0EBC9
:1008C000810FEFD1306800F00700B8420BD93068D3
:1008D00020F0070038433060306800F00700B8426D
:1008E00001D00120E5E72878400705D56068E96870
:1008F00020F4E060084360602878000706D560684F
:10090000296920F4605040EAC100606000F018F8E6
:100910006168084AC1F30311515CC8400649086088
:1009200006480068FFF7F8FE0020C2E700200240FA
:10093000001002403A1500080C00002004000020BE
:100940000E4A51680E4801F00C03042B11D0082BFD
:100950000FD10C48C1F38343C903C05C0AD5516869
:10096000084AC1F34041921E515C054A5043B0FB16
:10097000F1F07047044948437047000000100240FE
:1009800000127A002A15000800093D002DE9F84FF1
:10099000040070D02078C04DC00749D06868C0F30B
:1009A0008100012807D06868C0F38100022809D1BE
:1009B0006868C00306D52868800339D560680028B8
:1009C000E7D035E06068B0F5803F0BD010B1B0F5EE
:1009D000A02F11D0286820F480302860286820F4E7
:1009E000802002E0286840F480302860606890B180
:1009F000FFF772FE06460AE0286840F4802028606F
:100A0000F0E700BFFFF768FE801B642873D82868F2
:100A10008003F7D50CE0FFF75FFE064605E000BF58
:100A2000FFF75AFE801B6428F0D828688003F7D4AB
:100A300020789A4E80074FF001094FF0000839D511
:100A4000686810F00C0F07D06868C0F381000228B6
:100A500009D16868C00306D42868800714D52069C6
:100A6000012808D110E02069B0B1C6F80090FFF766
:100A700033FE074605E00AE1FFF72EFEC01B022801
:100A8000C4D828688007F7D52868616920F0F80085
:100A900040EAC10028600DE0C6F80080FFF71CFEA8
:100AA000074604E0FFF718FEC01B022823D8286879
:100AB0008007F7D4207800072CD57948A169D9B1EF
:100AC000C0F80090FFF708FE074604E0FFF704FEB9
:100AD000C01B02280FD8686A8007F7D571484FF409
:100AE000FA510068B0FBF1F0009000BF0098411E81
:100AF0000091FAD20EE080E0C0F80080FFF7ECFD34
:100B0000074604E0FFF7E8FDC01B022875D8686AB5
:100B10008007F7D42078400760D5E8690027C00037
:100B200008D4E86940F08050E861E869012700F0E6
:100B3000805000905C480168C90513D40168834661
:100B400041F480710160FFF7C7FD824606E000BFF7
:100B5000FFF7C2FDA0EB0A0064284ED8DBF80000C6
:100B6000C005F5D5E06801280AD008B1052813D0E2
:100B7000286A20F001002862286A20F0040002E0C0
:100B8000286A40F001002862E06841F2883B98B191
:100B9000FFF7A2FD82460BE0286A40F004002862BD
:100BA000EEE700BFFFF798FDA0EB0A0159455AD8C0
:100BB000286A8007F6D50CE0FFF78EFD824605E037
:100BC000FFF78AFDA0EB0A0159454CD8286A800737
:100BD000F6D41FB1E86920F08050E861E06988B37D
:100BE0006968C1F38101022944D00228C6F86080F7
:100BF00004D0FFF771FD044638E034E0FFF76CFDE8
:100C0000074604E0FFF768FDC01B02282BD82868C0
:100C10008001F7D4206AB0F5803F05D16868A168EB
:100C200020F4003008436860D4E90801084369688B
:100C300021F4741108436860C6F86090FFF74CFD1A
:100C4000044606E025E000BFFFF746FD001B022832
:100C500009D828688001F7D51BE000BFFFF73CFDED
:100C6000001B022802D90320BDE8F88F2868800104
:100C7000F4D40EE00128F7D06868226A00F48031CD
:100C8000914204D1616A00F47010884201D00120C1
:100C9000EAE70020E8E700000010024000004242BE
:100CA000800442420C00002000700040704770B584
:100CB000040009D0606A002540B125616561A56224
:100CC00094F8510040B10CE0012070BD6068B0F5AF
:100CD000827FF4D0E561F2E784F85050204600F0BE
:100CE0003FF8022084F851002068016821F040019B
:100CF0000160A088218900F4827001F40441084356
:100D0000A18901F400610843217C01F0020108433C
:100D1000217D01F001010843218B01F4007108439A
:100D2000217F01F03801084394F8201001F0800180
:100D30000843218D01F40051084321680860A0692F
:100D4000042101EA1040216848602068C16921F44B
:100D50000061C1616565012084F85100002070BD0B
:100D6000F0B585B0002406460094019402940394E3
:100D70000068284988424BD12748816941F4805155
:100D80008161816901F480510491816941F004011C
:100D900081618069214D00F004000490A020009042
:100DA000022001900320039069462846FFF7A4FB28
:100DB0004020CDE90004694628460294FFF79CFBD9
:100DC000184D17488027C5E90004C5E902472C6182
:100DD0006C61AC612846EC61FFF728FB08B1FFF7B6
:100DE00079FAF5646E620F4D0D484435143001C533
:100DF000102091C50B4845F8104944306C61AC6136
:100E0000EC61FFF713FB08B1FFF764FAB5646E629B
:100E100005B0F0BD00300140001002400008014064
:100E20001C000240680000202DE9F041044690F8C3
:100E3000510000263546012801D002265FE0A06857
:100E4000042318B96768B7F5827F16D094F85070FC
:100E5000012F1BD0012784F85070D1B1CAB184F89A
:100E600051306565A163A287E28725646564A58624
:100E7000E586B0F5004F0ED017E084F851302046DB
:100E8000BDE8F04113460A4600F046B80220BDE82E
:100E9000F081012633E02068016821F04001016003
:100EA0002068016821F480410160E16C1648C86245
:100EB000E16C16488862E16C15480863E06C456394
:100EC000E38F2168A26B0C31E06CFFF7DDFA20B1F3
:100ED000606D40F010006065DBE72068016849063E
:100EE00003D4016841F0400101602068416841F08D
:100EF000200141602068416841F00101416084F8AF
:100F000050503046C3E70000011200081F120008CD
:100F1000DF110008704770472DE9F041044690F852
:100F20005000002601280CD0012084F8500094F8CD
:100F300051000025676801280CD0B7F5827F07D1E2
:100F400002E00220BDE8F081A7680FB9042801D0B3
:100F500002265DE049B342B33BB394F85100042844
:100F600002D0052084F8510065652163A386E386DD
:100F7000A263A387E3872564656494F8510004287D
:100F800015D0E16C2448C8622448E16C8862E16CA9
:100F900023480863E06C4563E38F2168A26B0C3142
:100FA000E06CFFF771FAE0B906E0012630E0E16C91
:100FB0001C48C8621C48E8E72068416841F001010C
:100FC0004160A06CC562A06C8562A06C0563A06CDA
:100FD0004563E38E2268216B0C32A06CFFF754FA54
:100FE00020B1606D40F010006065DEE720680168A8
:100FF000490603D4016841F040010160206841685E
:1010000041F0200141602068416841F002014160E7
:1010100084F85050304695E715120008ED1200088C
:10102000DF110008011200081F12000870B5044605
:1010300090F850000026012809D0012084F85000C3
:1010400094F851000025012803D002264AE002202E
:1010500070BD89B182B1032084F8510065652163B8
:10106000A286E286A56365642564A587E587A068F6
:10107000B0F5004F02D00BE0012633E02068016894
:1010800021F0400101602068016841F48041016065
:10109000A16C1648C862A16C15488862A16C1548FD
:1010A0000863A06C4563E38E2268216B0C32A06C50
:1010B000FFF7EAF920B1606D40F010006065DBE7F2
:1010C00020680168490603D4016841F040010160CD
:1010D0002068416841F0200141602068416841F08A
:1010E0000201416084F85050304670BD0B12000878
:1010F00089120008DF110008704770477047704779
:1011000010B5401EB0F1807F01D3012010BD4FF01B
:10111000E02460610F21601700F0DDF90020A0617C
:1011200007202061002010BDFEE700000D4808B533
:10113000416941F0010141614069002200F0010074
:10114000009011460C20FFF733FB0C20FFF722FB29
:10115000002211460D20FFF72BFBBDE808400D20B3
:10116000FFF718BB00100240094808B5816941F03B
:1011700020018161816901F020010091816941F0C4
:1011800004018161806900F00400009008BD000046
:10119000001002400F4810B50D4901604FF48271F4
:1011A000416000218160C1604FF400720161C0E9BB
:1011B0000512C1610162416281620A21C162FFF7C9
:1011C00076FD002803D0BDE81040FFF783B810BDBE
:1011D0000030014010000020FEE7FEE7704710B528
:1011E000406A01684A6822F003024A60416D41F09A
:1011F00010014165012180F85110FFF757FD10BD26
:1012000010B5406AFFF787FE10BD10B5406AFFF7C2
:1012100074FF10BD10B5406AFFF771FF10BD70B5C7
:101220000546446AFFF758FA0246286800688006B7
:1012300026D42068416821F020014160A06818B9D7
:101240006068B0F5827F16D02068416821F0010106
:1012500041606421204600F076F808B120206065E6
:101260000020E087012084F85100606D40B12046E5
:10127000FFF71CFD70BD2068416821F00301E7E71E
:101280002046FFF747FE70BD38B50546446AFFF7B4
:1012900023FA024628680068800623D42068416843
:1012A00021F0200141602068416821F00201416085
:1012B0006421204600F075F818B1606D40F0200000
:1012C0006065A068002118B92068C2688068009035
:1012D000E186012084F85100606D18B12046FFF7C7
:1012E000E5FC38BD2046FFF707FF38BD70B5054661
:1012F000446AFFF7F1F902462868006880061ED4A8
:101300002068416821F0200141606421204600F0FE
:1013100048F818B1606D40F02000606520684168B1
:1013200021F0030141600020E086E087012084F87D
:101330005100606D18B12046FFF7B8FC70BD204623
:10134000FFF7DCFE70BDF8B5044640684FF48273C9
:10135000984217D1A0684FF48065B0F5004F01D0D6
:10136000A8420FD12068066826F040060660606833
:10137000984207D1A068A84204D100920B460022EF
:10138000012103E000920B4600228021204600F05C
:1013900019F8002804D0606D40F02000606503203B
:1013A000F8BD38B50B46009204460022802100F0BB
:1013B00009F8002804D0606D40F02000606503202B
:1013C00038BD00002DE9F8431E4691468846044684
:1013D000089DFFF781F9401B351AFFF77DF9074695
:1013E00025480068C0F3CB30684338E0701C37D024
:1013F000FFF772F9C01BA84203D215B1009860B381
:101400002CE02068416821F0E00141606068B0F59F
:10141000827F0BD1A068B0F5004F02D0B0F5806F8D
:1014200004D12068016821F040010160A06AB0F594
:10143000005F09D12068016821F400510160206833
:10144000016841F400510160012084F8510000203E
:1014500084F850000320BDE8F8830025401E00906A
:101460002068816838EA010004D000214945BDD1D7
:101470000020F0E70121F9E70C0000207047FFF79A
:1014800031B910B590B028216846FEF79DFE1421B1
:101490000AA8FEF799FE0220009001200490102077
:1014A0000024059007946846FFF770FA08B172B6F9
:1014B000FEE70F20CDE90A040C940D9400210AA840
:1014C0000E94FFF7A7F9002801D072B6FEE710B01E
:1014D00010BD7047FEE70907090E002804DB00F184
:1014E000E02080F80014704700F00F0000F1E020C9
:1014F00080F8141D7047000086B0FFF7FBF8FFF777
:10150000C0FFFFF731FEFFF711FEFFF743FE142285
:1015100069460448FFF78AFD142269460148FFF72F
:1015200083FCF4E710000020010202030405060713
:1015300008090A0B0C0D0E0F10100000000000002F
:101540000000010203040607080900006C150008EA
:101550000000002010000000280100087C15000891
:1015600010000020400700004401000801000000B6
:0C15700010000000000000000024F40047
:04000005080000ED02
:00000001FF
